:020000040800F2
:10000000F8FF01205D0200086F030108259B00082E
:100010006B030108B3150008292301080000000044
:100020000000000000000000000000009D0100082A
:10003000DD1A000800000000F9010008550D010854
:1000400077020008770200087702000877020008AC
:1000500077020008770200081D1E000877020008DA
:10006000770200087702000877020008770200088C
:10007000770200087702000877020008770200087C
:10008000770200087702000877020008770200086C
:10009000770200087702000877020008770200085C
:1000A000770200087702000877020008770200084C
:1000B0008111010877020008770200087702000822
:1000C000770200087702000877020008770200082C
:1000D0007702000877020008192301087702000858
:1000E000770200087702000877020008770200080C
:1000F00077020008770200087702000877020008FC
:1001000077020008770200087702000877020008EB
:1001100077020008770200087702000877020008DB
:1001200077020008770200087702000877020008CB
:1001300077020008770200087702000877020008BB
:1001400077020008770200087702000877020008AB
:10015000770200087702000877020008770200089B
:10016000770200087702000877020008770200088B
:1001700077020008770200087702000800000000FC
:100180007702000877020008DFF80CD000F082FE4A
:10019000004800474DF50108F8FF01202C4B196875
:1001A0000868B0E8F04F80F30988BFF36F8F4FF015
:1001B000000080F3118870470000000008480068C4
:1001C000006880F308884FF0000080F3148862B65E
:1001D00061B6BFF34F8FBFF36F8F00DF00BF00BF6B
:1001E00008ED00E0DFF80C00016841F470010160E7
:1001F000704700BF88ED00E0EFF30980BFF36F8F19
:10020000134B1A681EF0100F08BF20ED108A20E96A
:10021000F04F106009B44FF0500080F31188BFF325
:100220004F8FBFF36F8F20F045FC4FF0000080F33D
:10023000118809BC19680868B0E8F04F1EF0100F6B
:1002400008BFB0EC108A80F30988BFF36F8F704746
:100250001C030020EFF3058070470000064880472C
:1002600006480047FEE7FEE7FEE7FEE7FEE7FEE79B
:10027000FEE7FEE7FEE7FEE7E10E01088901000860
:100280002DE9F05F0546002092469B4688460646CB
:10029000814640241BE0284641464746224600F05E
:1002A0000AFC53465A46C01A914110D311461846CB
:1002B000224600F0F1FB2D1A67EB01084F4622465B
:1002C0000120002100F0E8FB17EB00094E41201E41
:1002D000A4F10104DFDC484631462A464346BDE826
:1002E000F09FA0F14101192900D82030704710B5C6
:1002F000441A0346944209D28418114403E011F8C9
:10030000013D04F8013D521EF9D210BD40EA01043E
:10031000A40703D009E010C9121F10C3042AFAD29F
:1003200003E011F8014B03F8014B521EF9D210BD46
:10033000D2B201E000F8012B491EFBD27047002227
:10034000F6E710B513460A4604461946FFF7F0FFD4
:10035000204610BD421C10F8011B0029FBD1801A59
:10036000704710B5002200E0521C835C8C5CA342F5
:1003700001D1002BF8D1D8B2E1B2401A10BD30B58E
:1003800004460020034600E05B1C934203D2E05C7D
:10039000CD5C401BF8D030BD034611F8012B00F8AE
:1003A000012B002AF9D11846704730B505460020C8
:1003B000034600E05B1C934205D2EC5CC85C201A4B
:1003C00001D1002CF6D130BD2DE9FF4F087883B064
:1003D0009946FF2805D0491C2D2804D00024002070
:1003E00008E000200BE00124F9E700EB800003EBBC
:1003F0004000491C0B78FF2BF7D104B14042002389
:100400000293147819461D462D2C01D02B2C04D1B3
:10041000521C2D2C13D000240294AA461478FF2CD1
:100420000FD00A25A3FB057801FB05814FF0000CD6
:1004300003FB0C11521CE3194AEB0101EEE7012406
:10044000EAE7814453EA010002D019F5C87F06DAD1
:1004500003980021C0E9001107B0BDE8F08F002526
:10046000AE4E2F46DFF8B882184600F0D2FCCDE938
:100470000001B9F1000002DAC9F1000400E004460D
:100480000023A74A1AEB030B42EB045A12E0E007E1
:1004900007D02A4633463846414600F0ECF9074675
:1004A00088462A4633461046194600F0E4F90546C8
:1004B0000E466410002CEAD1DDE90001B9F1000F0D
:1004C0005A46534606DA00F0E4FB3A46434600F04B
:1004D000E0FB05E000F0CFF93A46434600F0CBF9E7
:1004E000029A0AB181F00041039AC2E90001B3E720
:1004F0002DE9FF4F1F468DB0D7E901464FF0FF3879
:100500002E2045464FF000090B90B9696D1C0E98DE
:100510008847396A824688470028F6D1BAF1FF3FFA
:100520000AD024F4D064002E11DDBAF12B0F08D0CC
:10053000BAF12D0F0BD102E0404611B08DE744F423
:100540008064B9696D1C0E9888478246761E69469C
:10055000600501D52D2000E02B208DF8000001F171
:10056000010B0DF1200809E0B9696D1C0E98884750
:1005700082460F9844F40074761E0560002E02DD5A
:10058000BAF1300FF0D00B998A453ED144F0800487
:1005900006E00F99681CA9F1010944F40074086091
:1005A000B9696D1C761E0E98884782463028F0D0B7
:1005B0002BE00B998A4505D1200603D444F0800432
:1005C000761E18E050461EF0E3F908B30DF1130152
:1005D000761E44F400748B4508D2AAF130000BF863
:1005E000010B200607D5A9F1010003E0200602D483
:1005F00009F101008146A00502D50F99681C086029
:10060000B9696D1C0E9888478246002ED1DC53E0F4
:10061000002E51DDBAF1650F02D0BAF1450F4BD172
:10062000A00549D5B9696D1C24F44074761E0E9856
:1006300088478246002E0CDD2B2804D0BAF12D0FFE
:1006400007D144F48074B9696D1C0E9888478246BE
:10065000761EE00501D52D2100E02B2108F8011BB5
:10066000CDF82C8021E00DF12901761E44F40074B0
:1006700088450CD2AAF1300010F0FF0088F8000085
:1006800002D10B99884509D908F1010806E0E00577
:1006900001D5244801E042F20F708146B9696D1C12
:1006A0000E98884782460F980560002E04DD50465C
:1006B0001EF06EF90028D6D1F9690E988847FF2000
:1006C0008BF8000088F800000020069007904B4649
:1006D0006A4608A906A8FFF777FEA00502D46FF0C6
:1006E00001002AE714F0240F0AD0E00714D1DDE955
:1006F00006123868031D3B600068C0E900120BE079
:10070000DDE9060100F0A9FB0146E00704D13868E5
:10071000021D3A600068016028460EE700001440A0
:100720000000F03FF1D8FFFF2DE9FE4F804681EA3F
:100730000300C00F0C46009021F0004123F000455B
:10074000B8EB0200A94105D24046214690461C461E
:100750000B46024623F00040104347D0270DC7F355
:100760000A00C3F30A510290401A019040286BDA44
:10077000C3F3130040F4801B0098924620B100237D
:10078000D2EB030A63EB0B0B01985946C0F1400210
:10079000504600F081F906460D4650465946019AEA
:1007A00000F099F910EB08006141002487EA11522A
:1007B00084EAE7731A4340D0009A62B3019A012A8F
:1007C0004FEA075215DC001B61EB02014FF00042BB
:1007D00002EA0752CDE90042001C41F58011324681
:1007E0002B4600F008FA03B0BDE8F08F40462146E2
:1007F000F9E7001B61EB0201001C41F580130018B2
:100800005B412018A2F5001747EB030140EAD570C1
:10081000B6196D4111E06D084FEA360645EAC0751C
:100820004FEA0752001B61EB0201001C41F58011E9
:1008300049084FEA30000019514132462B4603B0B7
:10084000BDE8F04F00F0C8B9009801224000002335
:10085000D0EB020263EBE073009821464FEAE074AC
:10086000B8EB000061EB0401E9E783F000435BE7CC
:1008700081F0004158E72DE9FE4F81EA030404F0BE
:10088000004421F0004100944FF0000B23F000439E
:1008900050EA01045ED052EA03045BD0C3F30A5469
:1008A000C1F30A552C44A4F2F3340194A0FB025482
:1008B000C1F3130141F48011C3F3130343F4801314
:1008C00001FB024400FB034E840A970A44EA815468
:1008D00047EA8357A4FB076802958D0A05FB078545
:1008E0004FEA932C04FB0C542705029D4FEA06584F
:1008F00047EA1637B5EB08056EEB070C870E920E2C
:1009000047EA811742EA8312A7FB0201B6EB0B010B
:1009100064EB00042B0D43EA0C335E1844EB1C50CF
:10092000DA465146E7FB0201C5F313044FEA0B33E5
:1009300043EA14534FEA0432019C43EA0603A4F14C
:100940000C040294009CCDE900B400F054F903B00B
:10095000BDE8F08F00200146F9E70EB540F23341C3
:1009600002910021CDE900110A460B4600F043F93F
:1009700003B000BD70B5C1F30A5201F00045002478
:10098000C1F3130140F2FF3341F480119A4201DABE
:10099000002070BD40F233439A42A2F2334203DC9E
:1009A000524200F088F800E090402C43F1D04042E1
:1009B00070BDC1F30A5210B5C1F3130140F2FF3309
:1009C00041F480119A4201DA002010BD40F2334315
:1009D0009A42A2F2334203DC524200F06CF810BD9E
:1009E000904010BD00F0004230F000400AD0C10D30
:1009F00001F56071C0F3160042EA0151C2084007D8
:100A000011437047002001467047000030B5041EB6
:100A100071F1000404DB4FF00044404264EB01013B
:100A2000141E73F1000405DB1C464FF000435242D4
:100A300063EB04038B4208BF824230BD30B5041E15
:100A400071F1000404DB4FF00044404264EB01010B
:100A5000141E73F1000405DB1C464FF000435242A4
:100A600063EB0403994208BF904230BD30B50B469A
:100A7000014600202022012409E021FA02F59D42CE
:100A800005D303FA02F5491B04FA02F52844151EA2
:100A9000A2F10102F1DC30BD202A04DB203A00FA89
:100AA00002F1002070479140C2F1200320FA03F3C5
:100AB000194390407047202A04DB203A21FA02F0C3
:100AC0000021704721FA02F3D040C2F12002914088
:100AD000084319467047202A06DBCB17203A41FA13
:100AE00002F043EAE07306E041FA02F3D040C2F1BB
:100AF00020029140084319467047426842B101689C
:100B000011F8013B23B1521EC0E90012184670478C
:100B10000121C160881E704742685AB1C3680168EC
:100B200043B983688B4205D0491E521CC0E90012AC
:100B3000002070474FF0FF30704700000FB40023D3
:100B400000B589B00CA900910B996FF00042CB6001
:100B50001E4B06931E4B07930423CDE901321D4A19
:100B6000089202466B460020FFF7C2FC09B05DF810
:100B700014FB70B586B006464FF0FF300091CDE90A
:100B80000101002015460C4604903246694604A82F
:100B9000FFF7D4FF02460498211825B108B1084692
:100BA00000E020462860049800280DD0002A02DDCD
:100BB0000098884208D0081B0094CDE90104324611
:100BC000694604A8FFF7BAFF06B070BDFB0A00082B
:100BD000190B0008B90E000810B5141E73F10004BB
:100BE00008DA401C41F1000192185B411A4301D11F
:100BF00020F0010010BD2DE9F04D92469B4611B149
:100C0000B1FA81F202E0B0FA80F220329046FFF7AA
:100C100043FF04460F4640EA0A0041EA0B015346EF
:100C20005A46084313D0114653EA010019D0C8F1BF
:100C300040025046FFF73FFF05460E4650465946D4
:100C40004246FFF729FF084305D0012004E0204673
:100C50003946BDE8F08D0020054346EAE0762C4396
:100C600037430A986305E40AA0EB08000022FD0A56
:100C700044EA47540A3002D500200146E9E701055D
:100C800010196941DDE9084500196941BDE8F04DD9
:100C9000A2E72DE9F04D81EA030404F0004B21F0B6
:100CA000004514464FF0000A23F0004150EA0502C7
:100CB00020D054EA01021DD0C5F30A570246C5F3FD
:100CC0001303C1F31300C1F30A5640F4801543F433
:100CD0008013A7EB0608101BD64608F2FD3873EB0D
:100CE000050002D308F1010801E092185B41B8F158
:100CF000000F03DA00200146BDE8F08D00204FF41C
:100D00008011064684460EE0171B73EB050705D3DA
:100D1000121B63EB050306434CEA010C49084FEA3A
:100D2000300092185B4150EA0107EDD152EA03000E
:100D300012D082EA040083EA0501084305D0101BA3
:100D4000AB4106D20122002306E000224FF000430F
:100D500002E06FF0010253101AEB06004CEB085151
:100D600010EB0A0041EB0B01BDE8F04DFFF734BF7B
:100D70002DE9F04D00231A461B1A8A4103DB00209F
:100D80000146BDE8F08DC1F30A52C1F3130141F4ED
:100D900080154FF0000BD10702D100186D41521E93
:100DA0000027044640F2FF11384601EB620A3E4636
:100DB0008046024600204FF48011FFF77CFEC219E6
:100DC0007141BB1846EB0100B4EB030C75EB000C52
:100DD00004D3E41A65EB000517460E46241908F102
:100DE00001006D4180463428E3DDF91946EB060029
:100DF000091BA84103D24FF0FF32134601E0002245
:100E000013461BEB070046EB0A51BDE8F04DFFF718
:100E1000E3BE0EB540F2334202920022CDE9002239
:100E20001346FFF7E8FE03B000BDC1F30A52C1F359
:100E3000130140F2FF3341F480119A4202DA00209C
:100E40000146704740F233439A42A2F2334202DC39
:100E50005242FFF730BEFFF71FBE01F0004330B42F
:100E600021F0004150EA010206D00A0DA2F560729D
:100E7000C1F31301002A02DC30BC00207047440F8C
:100E800044EAC104C100E01830BC00EBC25000F0DD
:100E900018B80000064C074D06E0E06840F001037A
:100EA00094E8070098471034AC42F6D3FFF770F986
:100EB000B4EA0408D4EA0408C0B24FF4F05100F0D8
:100EC00037B80029A8BF7047401C490008BF20F070
:100ED0000100704710B4B0FA80FC00FA0CF050EA40
:100EE000010404BF10BC704749B1CCF1200421FAC1
:100EF00004F411FA0CF118BF012121430843A3EBBC
:100F00000C01CB1D4FEA00614FEA102042BF0020C8
:100F100010BC704700EBC35010440029A4BF10BCA4
:100F20007047401C490008BF20F0010010BC70470A
:100F30007F2801D9002208E0064A02EB5002C007D0
:100F4000127800D1120902F00F02012090400840EF
:100F50007047000020E8040870B58C1810F8015B99
:100F600015F0070301D110F8013B2A1106D110F842
:100F7000012B03E010F8016B01F8016B5B1EF9D146
:100F80002B0705D40023521E0DD401F8013BFAE7CC
:100F900010F8013BCB1A921C03E013F8015B01F837
:100FA000015B521EF9D5A142D8D3002070BD10B507
:100FB00009F000F910BD2DE9F04107460C46002666
:100FC000002509E036023919491B491E88B200F094
:100FD00008F80644681CC5B2A542F3DB3046BDE8FC
:100FE000F08170B50446002609F082F92546E11724
:100FF00004EB11610912A02202EB4101C8B209F011
:1010000043F909F0BFF9E11704EB11610912A4EBF0
:101010000121C8B209F038F909F0B4F909F068F90A
:10102000A12009F031F909F0ADF9002009F0F6F836
:10103000064609F083F9304670BD2DE9F0410546BA
:101040000E461746002409E0E20026FA02F2D1B269
:101050002A1990B200F006F8601CC4B2BC42F3DB5F
:10106000BDE8F08170B504460E4609F041F9254609
:10107000E11704EB11610912A02202EB4101C8B291
:1010800009F002F909F07EF9E11704EB1161091288
:10109000A4EB0121C8B209F0F7F809F073F9304662
:1010A00009F0F2F809F06EF909F048F90A2007F0A2
:1010B000B9F870BD002800DC4042704738B545687B
:1010C00004460146284611F064F900282BD0206818
:1010D000304A11280DD006DC0B2825D00E2833D03D
:1010E0000F2852D112E0282849D0B0F5107F4CD1FA
:1010F00008E09268002A16D02146284601B0BDE8D3
:1011000030401047214628465268F7E7284602F04B
:10111000A1FE0090406E0468684602F007FF002CB4
:1011200001D02846A04738BD284602F093FE009023
:10113000683002F0E5FD009803216C3002F0EEFD0E
:10114000684602F0F3FE20E0E168486809680D296E
:1011500002D0202913D105E0002810DD284619F01F
:1011600095FD06E0002804DD2846BDE8384019F06A
:101170008DBD2846BDE83840022119F09DBDE068CC
:1011800018B90021284600F0A9F92046BDE83840EA
:1011900011F002BC40040020F0B585B00AAC94E820
:1011A000E0000024CDE90246CDE90057049400F0A8
:1011B00011F805B0F0BDF0B585B00DF1280C9CE834
:1011C000F0004FF0000C8DE8F01000F003F805B0CF
:1011D000F0BD00002DE9F04F85B01F46DDE911B4E8
:1011E000DDE90E5690468946824603F0C5FF164853
:1011F0004C34CDE90204CDE900563B46424649460F
:10120000504611F011FB040018D002F023FE10220A
:101210005946049011F000FA049830220B493430FA
:10122000FFF765F8094D04990C3D2868486604A845
:1012300002F07CFE286841682046884705F0F0FBF4
:1012400005B02046BDE8F08FBD1000084C0400201A
:10125000F0B5044680688B4989B051F82050606829
:1012600000287DD0052804D006287AD0122879D10C
:10127000AEE0E86900284FD095E80E008DE80F0039
:1012800004F110010FC906F099FA002655F826005E
:1012900004F0D1FCA169E8690A1A21690144606976
:1012A000304403F073FCA169E8690A1A216901441A
:1012B000E069801B03F06AFCE169E8690A1A616968
:1012C00001442069304403F017FDE169E8690A1A16
:1012D00061690144A069801B03F00EFD761C022E9B
:1012E000D4DBA86804F0A7FCE069E9696669431AE1
:1012F000206942183144801C521E03F05FFDE169F1
:10130000E869A2690B1A61690144101A401C921E17
:1013100003F054FDEE6913E05FF0000655F8260077
:1013200004F089FCE069831BA069821B6069811954
:101330002069304403F0A0FC761C022EEEDB02266E
:10134000D5E90301CDE900016169E0690844431072
:10135000A069891C821B2069304403F0DBFB02E09A
:1013600089E012E08AE0D5E90501CDE90001E369F1
:1013700060690121184401EB6001A0699B1E821B7A
:101380002069304403F0C6FB78E0206802F062FD7B
:101390000490206812F05EFF40B1A06808B1002000
:1013A00008E00498006F28B1012003E00498406F22
:1013B00000B10220049901EB8000C56E04A802F080
:1013C000B5FD00231A462846216803F007F955E0C9
:1013D000206802F03FFD0490866EEEB3B0F95C70B9
:1013E000A168D1B3032942D05FF0000100EB810175
:1013F000406D0C6C04F048FC204604F01CFC05A871
:1014000003F09EFDBDF81410A88B0144ADF8141034
:10141000BDF81810081AADF81800BDF81600801CA9
:10142000ADF81600BDF81A00801EADF81A00049839
:10143000B0F96020B0F95E1005A804F0AAFA04A87B
:1014400002F074FD022004F08BFC304602F002FD35
:101450003A4605A9079001E00BE006E003F0E0F949
:101460000DF11C0002F062FD08E00121BEE702213F
:10147000BCE704A8F6E7206812F076FB09B000206C
:10148000F0BD0000E4DD040808B50023009300F07F
:1014900001F808BD70B516460C460546194630469B
:1014A000049A03F05DF8024621462846BDE87040E4
:1014B00000F060B838B50D4604000ED003F05CFEB5
:1014C000204602F0C7FC00904565684602F02EFDFC
:1014D000204611F0F3FF05F0A3FA38BD4FF48072F7
:1014E0000029114601D010F0E9BF10F01FBF08B568
:1014F0000023009300F001F808BD70B516460C46B5
:10150000054619463046049A03F04AF80246214639
:101510002846BDE8704000F02DB82DE9FF410E4689
:1015200005004FF0010421D003F026FE284602F00A
:1015300091FC0190876E01A8009702F0F7FC3146FC
:10154000684606F031FD78B100980024B84208D012
:10155000284602F07FFC01900099816601A802F004
:10156000E5FC284611F0AAFF05F05AFA04B020461F
:10157000BDE8F081F8B515460C46060018D003F01A
:10158000FBFD304602F066FC0090032C0BD200EB12
:1015900084006C3002F0B4FB009800EB8400C56658
:1015A000304611F08BFF684602F0C0FC05F038FAB7
:1015B000F8BD00BFFEE7F8B5446805460146204681
:1015C00010F0E7FE002836D028680B2839D00E2806
:1015D00005D00F2821D0B0F5107F3CD12CE020465B
:1015E00002F038FC009010F8746F4778684602F0FB
:1015F0009DFC204612F02EFE10B3E86841680029D9
:1016000029DD0068202826D17F1CB7FBF6F006FBF9
:101610001071204600F072F91DE02546204602F0C8
:1016200019FC0090006F0468684602F07FFC002CF3
:1016300001D02846A047F8BD2946204619F0EAFF08
:1016400009E0204602F006FC0090783002F058FBDA
:10165000684602F06BFC2846BDE8F84011F09CB9E2
:10166000F0B585B0B0F90850468A84690296CDE994
:1016700003540027CDE90017B0F90C10B0F9105051
:10168000B0F90E40B0F90A00194410442B46224626
:1016900000F002F805B0F0BD2DE9F04F85B01D4611
:1016A000DDE90E9716468A468346DDF8488003F04A
:1016B00063FD254C0EB135B10AE0206880680068F2
:1016C00080470646F7E7206880680068804705463F
:1016D0001D486FF07041001DC068884201D147F07D
:1016E000010708F15400194ACDE90220CDE900971D
:1016F0002B4632465146584611F096F805001CD04C
:1017000002F0A8FB10220490119910F085FF0E49F9
:1017100004983C22091D3430FEF7E9FD0498216845
:101720000167022180F874100F21C16704A802F03C
:10173000FDFB206841682846884705F071F905B02F
:101740002846BDE8F08F00007C040020B715000893
:101750002DE9FF470446006810B112F07BFD68B127
:101760000022314850F8221060680A2841D007DC76
:10177000F0B306280DD0072854D106E00122F0E787
:1017800012280AD019284DD137E0204614F05AFA11
:1017900048E0204616F020F844E0206802F05AFBAA
:1017A0000290B0F9548090F85650476C466B02A8EE
:1017B00002F0BCFB206800F039F88146684611F061
:1017C0000FFABDF8001009EB05000844ADF8000061
:1017D000246A304604F058FA022004F0C1FA384670
:1017E00004F029FA42466946204603F019F819E048
:1017F00007E0204616F07DFA14E0886904B0BDE8E1
:10180000F087206812F0B0F9206802F023FB039003
:10181000B0F90610B0F90220891A491CC16703A863
:1018200002F084FB0020E9E75CDE040838B50446DA
:1018300003F0A2FC204602F00DFB0090C46F684646
:1018400002F074FB05F0ECF8204638BD38B5050011
:101850004FF000040CD003F08FFC284602F0FAFA97
:10186000009090F87540684602F060FB05F0D8F8EB
:10187000204638BD38B50C46050011D003F07CFC7D
:10188000284602F0E7FA0090416BA14203D044637E
:10189000284611F013FE684602F048FB05F0C0F838
:1018A00038BDF8B514460D4606000FD003F064FCB1
:1018B000304602F0CFFA0090062C02D200EB8400F2
:1018C0008565684602F032FB05F0AAF8F8BD000015
:1018D00038B504000FD003F04FFC204602F0BAFAEE
:1018E000054900900167684602F020FB204611F090
:1018F000E5FD05F095F838BD84CA040838B50C46F6
:1019000005001BD003F038FC284602F0A3FA009033
:1019100090F87410A1420CD980F87540684602F026
:1019200005FB284611F0CAFD0521284611F0AAFE44
:1019300002E0684602F0FAFA05F072F838BDFEB52A
:101940000D46040022D0002D20D003F015FC2046C7
:1019500002F080FA0190866F01A8009602F0E6FA84
:101960002946684606F020FB70B10098B04208D0C6
:10197000204602F06FFA01900099816701A802F0F9
:10198000D5FA204611F09AFD05F04AF8FEBD38B5AB
:101990000C46050011D003F0EFFB284602F05AFA7E
:1019A0000090416CA14203D04464284611F086FDAA
:1019B000684602F0BBFA05F033F838BD00B589B0CF
:1019C00024216846FEF7BBFC1920019003480068FB
:1019D000806841686846884709B000BD7C040020E3
:1019E0007CB5214C0546216831F8220F4A8D104400
:1019F00008804888CA8D10444880284603F07AFA47
:101A00002168498CADF800104618284606F01CF9EC
:101A10003044401EADF8040003F0E6FA2168898CDA
:101A2000ADF802100844401EADF80600684612F0FA
:101A30009DFA04E0284601F0CBFB12F04BFA002897
:101A4000F8D10A2D04D0BDF804002168401C488458
:101A5000206830F8221F428D891A01804188C28D8A
:101A6000891A41807CBD00009003002070B50025DC
:101A7000002415E001210B4806F068FD18B1681C30
:101A8000C5B2002405E0601CC4B2032C01DD0020B7
:101A900070BD1E2006F0C6FB642D01DB0120F7E7B8
:101AA000E8E70000000002407CB511F0C7F80546E9
:101AB000002000902B46044A07210190034802F0C1
:101AC00023FC044620467CBDB5E0010874170208DB
:101AD0000148006870470000C404002070470000FF
:101AE00000BF8448007801287ED101F03BFB82488A
:101AF00001F054FB42F210701DF064FD7F481DF0B0
:101B00009EFB7F4908607FA17D4800681DF04EFB69
:101B10007E490860084600681DF03AFB0446784894
:101B2000006818B97AA01CF04FF9D5E00021774879
:101B300000681DF021FB7B4908607BA179480068A3
:101B40001DF034FB7949086079A1784800681DF0E0
:101B50002DFB794908604FF47A701DF033FD77A1B1
:101B6000724800681DF022FB7749086072480068DF
:101B7000016976A01CF028F973480068016973A018
:101B80001CF022F96C48006801697248FEF704FCF9
:101B90006D48006801697048FEF7FEFB5848006810
:101BA0001DF0BEFA6C4A6DA172481CF01DF940F69A
:101BB0000B017148006811F057F8704908606D49D1
:101BC0006E4800680FF085FA6348002101600171DA
:101BD00060480078012822D15E484078332809D037
:101BE0005C484078342800E07FE003D059484078D2
:101BF000352814D162A01CF0E7F864A169481CF0F4
:101C0000F3F840F60A015C48006811F02DF85B49D2
:101C100008605EA1594800680FF05BFA55E04D4836
:101C20000078302803D04B480078312814D15EA0CA
:101C30001CF0CAF85FA15B481CF0D6F840F60A0118
:101C40004D48006811F010F84C49086059A14B4804
:101C500000680FF03EFA38E03E480078342807D09C
:101C60003C480078352803D03A480078362814D10B
:101C700056A01CF0A9F859A14A481CF0B5F840F646
:101C80000A013D48006810F0EFFF3C49086053A18D
:101C90003A4800680FF01DFA17E02E4800783928FE
:101CA00013D154A01CF090F840F60A0132480068A5
:101CB00010F0DAFF3149086051A13A481CF094F85D
:101CC0004FA12E4800680FF004FA782021490870CF
:101CD00048700020074908704FF4FA710748FEF772
:101CE0002EFB00204C49088000BF40F6AC501DF090
:101CF00069FCF6E6540100204C020020C099012046
:101D0000CC020020726573756C747300D0020020E1
:101D10000A6A736F6E20666D74206572726F720A44
:101D200000000000E00200206E6F7700D402002067
:101D3000636F646500000000D802002074656D7058
:101D40006572617475726500DC0200206E0D25738A
:101D50000A0D0000BF020020C4020020546F64611D
:101D60007927732054656D70657261747572653A78
:101D700020257300C89B012048010020F0020020AC
:101D80000ACCECC6F8A3BAD3EA0A0000546F646127
:101D900079277320576561746865723A205241490A
:101DA0004E000000E69B01200ACCECC6F8A3BAC79F
:101DB000E70A0000546F64617927732057656174E6
:101DC0006865723A2053554E000000000ACCECC6FC
:101DD000F8A3BAB6E0D4C60A00000000546F6461EC
:101DE00079277320576561746865723A20434C4FB8
:101DF000554459000ACCECC6F8A3BAD2F50A000043
:101E0000546F646179277320576561746865723A0D
:101E10002059494E00000000B401002010B50120F7
:101E200006F086FA10BD70472DE9F04389B0984658
:101E300015460F4606004FF000042CD000F0BCFB06
:101E40000446304600F09FFB814603F095F903A954
:101E5000304600F074FCF80706D0BDF91C00822162
:101E6000001B401B401C08E0B807BDF918002844BF
:101E700002D540F2022100E002210096CDE9018165
:101E800023461A464946FFF787F90446002110F019
:101E90002EFB04F0C5FD09B02046BDE8F08300002C
:101EA00010B50523FFF7C0FF0446054A0021FFF7E0
:101EB0001EFB0449204611F016FD204610BD00000F
:101EC000E15A0108A1E001082DE9F0470446406805
:101ED0008EB00027804601F0BDFF0090B0F87CA0D6
:101EE000D0F86890D0F88060D0F88850C06D00B10C
:101EF0000768684602F01AF805E0696820468847D6
:101F0000002843D12D68002DF7D12068172853D021
:101F10000CDC0F283DD004DC0B2877D00D2825D110
:101F20008BE0112810D0142820D13BE0262846D081
:101F300004DC1E2851D0202818D18AE02A2816D087
:101F4000B0F5107F12D128E04046E56801F082FF2D
:101F50000290697A39B9297A012904D130F87C1FB5
:101F600041F48071018002A801F0E0FF75E0404675
:101F700001F070FF0090E16811B1C0F8841002E038
:101F8000D0F88400E060684601F0D0FF0EB0BDE8F4
:101F9000F087D7B34046B8475FE02146404619F086
:101FA0006FFBF3E705A9404600F0C9FBE06806991E
:101FB000016007994160E9E7C4F80C90E6E7E06842
:101FC0000228E3D1CDF83080E0680D9027200A90F8
:101FD0000AA9A06812F038FBD8E7E068012804D00D
:101FE0000021404600F005FBD0E7304611F0CFFA63
:101FF00068B1304611F00CFD304611F08BF998B104
:102000000121304610F05AFA0EE026E02FE0484653
:1020100011F052FD0646404601F01CFF0090C0F84A
:102020008060684601F082FF0121404600F0E1FA3D
:10203000002EABD10020E060A8E75FEA0A700CD464
:10204000E068C06848B1007A38B1404611F0E0FC61
:1020500003E02146404618F04CFE2146404610F071
:1020600098F9002892D0204610F096FC8EE7404662
:1020700001F0F0FE0090703001F042FE684673E718
:102080002DE9F04387B00DF13808814698E8F1104A
:102090004FF00008CDF818808DE8F110484600F0A8
:1020A00023F807B0BDE8F083F0B587B0B0F9084079
:1020B0000DF10C0C0C9E876945688CE8F000448A91
:1020C0000025CDE900150294B0F90C10B0F91050BC
:1020D000B0F90E40B0F90A00194410442B462246CC
:1020E00000F002F807B0F0BD2DE9F04F8BB0984634
:1020F000DDE9155691468A468346149F1A9C03F0E3
:102100003BF83348603445F48055CDE90204CDE90D
:10211000007543464A465146584610F085FB040078
:102120004FD001F097FE30220490179910F074FA06
:102130000498282227493430FEF7D9F804981999D1
:10214000244F4166A0F87C600026C0F88060C66617
:10215000083FC0F888607968C16504A801F0E6FE10
:1021600005A9204600F0EBFA1B4841F28271039664
:102170000094CDE90110BDF91E00BDF91A10BDF99A
:102180001C20431ABDF918005B1C121A521C10F0D7
:102190004BFB06467868416820468847204601F098
:1021A00059FE0490866604A801F0C0FE42F20400C5
:1021B000054202D1204610F09FFC2046189900F0FD
:1021C0005DFA04F02DFC0BB02046BDE8F08F000056
:1021D000C91E0008D0040020452A00082DE9F0415E
:1021E000044694B0006800F0B7F908B1D94D01E099
:1021F000D84D2C35606815281ED00CDC0B281FD05C
:1022000004DC00287ED005287DD12FE10E287BD06C
:102210001228F9D141E1162806D0172808D018282D
:1022200008D01C28F0D109E0E86914B0BDE8F081BD
:10223000286AFAE7686AF8E7A86AF6E76869F4E7DF
:1022400020680B901C200C90206801F003FE039086
:10225000016D0BA88847064603A801F067FE022E11
:102260000FDB95E807008DE80700D4E90402334648
:10227000A16905F069FA20698719A069A0EB060831
:102280002CE0286803F0D7FC2169E8690A18521E7F
:10229000606902F07BFCA269E869111A491C606957
:1022A00002F074FCD4E904077F1C394602F0BEFC3E
:1022B0003946A06902F0BAFC686803F0BCFC2069EA
:1022C0003946401C02F0B2FCA0693946401E02F0BB
:1022D000ADFCA0692769A0F10208BF1C286803F0C3
:1022E000AAFC42463946606902F050FC686803F077
:1022F000A2FC606942463946401C02F047FC686A0D
:10230000022802E015E1B0E000E10BDDA86803F06F
:1023100092FC61696A6A881C8B18014642463846FD
:102320005B1E27E0296AB14226DD6069022E07465E
:1023300000F1020801DB374401E007F102072069E0
:1023400001DB304401E000F1020022693B460A440F
:102350004146A2F1010202F031FD022E02DBA0692A
:10236000821B01E0A269921EA069E9693B46401AFE
:102370004146401C02F022FD022E02DB6069064449
:1023800001E06669B61CE76928687F1E03F053FC0C
:102390003A463146206902F0AFFC3A463146A06920
:1023A00002F0AAFCE7696868BF1E03F044FC2069DC
:1023B0003A463146401C02F09FFCA0693A4631463D
:1023C000401E02F099FCE869022802DC286A022813
:1023D00023DDA86A022802DDE1690F1A01E0E7693E
:1023E000BF1EA86803F027FCE969022909DD2069FE
:1023F0003B46421800F1020C31466046521E02F084
:10240000DDFC286A022808DDA269E8693B46101A4B
:102410003146401C921E02F0D1FC286803F00BFCF0
:10242000D4E90620216902F0B1FB686803F003FCDF
:10243000D4E906202169401E491C521E02F0A6FB69
:10244000A86A022811DDA1692669E469A1F10208E0
:10245000271AA41EB61C7F1CA86803F0ECFB2346B9
:1024600042463946304602F0A9FC71E0208A00B2AB
:10247000ADF81400A18A09B2ADF81610228B12B281
:10248000ADF81820A38B1BB2ADF81A302C69ED689B
:10249000CDE9005402F03EFB5AE0208A298B084423
:1024A000ADF81400A08AADF81600208B298B401AD5
:1024B000ADF81800A08BADF81A00206801F0CAFC36
:1024C0000390006FF0B1022003F04AFC039890F8EB
:1024D0007C10C1F3C00100EB8100006C03F0ABFB8A
:1024E0000398406B03F0D0FB0398006F01F0B2FC3F
:1024F00003990990B1F95A2005A902F091F909A8A8
:1025000001F014FD03A801F011FD21E0208AADF8CF
:102510001400A08AADF81600208BADF81800A08B2F
:10252000ADF81A00A86803F086FB05A802F072FC5B
:102530000EE0206801F08EFC039030F85A1F41F045
:102540000C01018003A801F0F1FC206811F00CFBE4
:1025500000206AE61408002038B505004FF000049A
:102560000FD002F009FE284601F074FC009090F8AC
:102570007C00000700D50124684601F0D7FC04F078
:102580004FFA204638BD38B505004FF0000411D091
:1025900002F0F2FD284601F05DFC0090C06D0021C4
:1025A00080680268284690470446684601F0BEFCF1
:1025B00004F036FA204638BD30B587B005004FF03C
:1025C000000413D002F0D8FD01A9284600F0B7F8A6
:1025D000284601F03FFC0090B0F95440684601F0F5
:1025E000A5FC0CB9BDF9044004F01AFA07B0204666
:1025F00030BD70B50D46040009D002F0BDFD29467E
:1026000020461AF005F8BDE8704004F009BA70BD24
:102610002DE9FC410D46804602F0AEFDB8F1000008
:1026200028D001F017FC0190C16D8C6800F0EEF825
:1026300007460198456301A801F078FC2268012152
:10264000404690470646226803214046904705468B
:1026500022680021404690470446404600F0BBF9FE
:102660002B46324639464046009400F044F9404635
:1026700010F024FF04F0D4F9BDE8FC817CB50D46D0
:1026800004001DD002F078FD204601F0E3FB00902D
:10269000006F0190684601F049FC294601A805F049
:1026A00083FC58B1204601F0D5FB009001990167E9
:1026B000684601F03BFC204610F000FF04F0B0F942
:1026C0007CBD2DE9FC470D465FEA00094FF0000490
:1026D00032D002F051FD484601F0BCFB0190B0F948
:1026E0005440A54223D000F091F880460198012182
:1026F000A0F85450C06D856848462A689047074640
:102700002A6803214846904706462A680021484621
:1027100090470546484600F05EF933463A46414642
:102720004846009500F0E7F8484610F0C7FE01A8BB
:1027300001F0FCFB04F074F92046BDE8FC872DE9AC
:10274000F34F85B000270C46B846059801F082FB90
:102750000090C06D0121856805982A6890478246DF
:102760002A6803210598904704902A680221059859
:10277000904703902A6800210598904706460098E4
:1027800011F0E6FB8346009811F0E9FB81460098C2
:1027900090F83210890601D5B0F9588000F036F86B
:1027A00005460098C06E10B110F0C6FB07462580A4
:1027B0006780A4F804A0049AABEB020006EB0802C1
:1027C000401E2A4420813A44E280039BA9EB030285
:1027D000521E6281A4F80CA020827019E681401E6E
:1027E0006082684601F0A2FBB4F90C000190B4F9D4
:1027F0001000029002AA01A9059800F039F801988A
:10280000A0810298208207B0BDE8F08F10B5014684
:10281000002091F83220920607D5B1F95400002823
:1028200003D1486B02F038FC801C10BD70B58AB033
:102830000C46054601F00EFB0990C06D866809A89C
:1028400001F074FB009534B1012C06D0022C0BD0A2
:10285000032C04D10AE0182000E0162001907168D2
:10286000684688470AB070BD1520F7E71720F5E7DE
:102870002DE9FC4117468846044601F0EBFA00902A
:10288000C16D056868468E6801F050FB3268002112
:10289000204690470646204610F00EFA27E000BF7B
:1028A00001F0D8FA0190B0F900102AB2B0F9043062
:1028B000891A9A1AB0F90230A3EB2543B34210D11A
:1028C00090F82800000605D53868884209DB491EC3
:1028D000396006E0D8F80000904202DC521CC8F8CB
:1028E000002001A801F022FB204610F093FA04001A
:1028F000D6D1BDE8FC812DE9FF4F83B00E460746D7
:10290000DDF8409001F0A6FA0190C16D8D68FFF7E7
:102910007DFF044601A801F009FB2A680121384621
:10292000904783462A6803213846904782462A68A2
:102930000021384690470546B44207D105998B459A
:1029400004D106998A4501D14D4541D0A41B0026EA
:10295000B046384610F0B0F938E001F07BFA00904C
:10296000806A010601D5800502E0810528D50006B0
:10297000002825DB24B122461146384610F0BFFE60
:10298000009890F8280000060AD50698A5EB0902E1
:10299000A0EB0A0004FB16013846761C10F063FE1B
:1029A0000098008D80050BD50599A5EB0902ABEBCE
:1029B000010004FB080108F10108384610F053FE3D
:1029C000684601F0B3FA384610F024FA0700C4D183
:1029D00007B0BDE8F08F70B586B0064601F03AFA50
:1029E0000590D0E91A4505A801F0A0FA54EA0500BF
:1029F00026D069463046FFF7A2FEACB1BDF90620ED
:102A0000BDF90410204610F001FEBDF90A00BDF921
:102A10000610421ABDF90800BDF90410521C411AF3
:102A20002046491C11F0ECF8002D09D0BDF9060034
:102A3000BDF90210421ABDF90410284610F0E6FD57
:102A400006B070BD2DE9F0430446406889B00546E4
:102A500010F0EDF9814601F0FDF90290D0F84880C0
:102A6000D0F88070466E02A801F060FA206817283E
:102A700053D008DC0E283AD00F2811D014284CD09F
:102A800015283DD149E01E281ED01F282AD0222813
:102A900040D0312834D10020E06009B0BDE8F08397
:102AA0006FF070414046884503D00CF095F901F075
:102AB000DFFB002EF1D0D4E902122068CDE9040535
:102AC000CDE9061204A81FE0E0680028E5D02FB188
:102AD000AF4203D0384610F09BFFDEE7284610F0E7
:102AE000EBFFDAE7214648460FF053FCD5E7E068F4
:102AF0004168002904DD00680928EFD00A2805D0C4
:102B00005EB12046C4F80490B047C6E7284611F0ED
:102B100007F8C2E7C4F80C80BFE720460FF03CFF7F
:102B2000BBE7000070B504461D460023B5F5804F95
:102B300013D154F822300C480340D1E9000640EA92
:102B400006108E6840EA06208E8940EA06408E69AB
:102B50003043034344F8223003E06FF0704044F800
:102B60002200002070BD00000000F0CF10B5034629
:102B70000022086853F8202012480240D1E90104DD
:102B80002043CC6820430C6920434C6920438C6966
:102B90002043CC6920430C6A20434C6A20438C6A52
:102BA0002043CC6A2043CC6B20430C6B2043024370
:102BB0008868082801D142F04002086843F82020C4
:102BC000002010BD8000F0FF30B503460024501CEB
:102BD00053F8204004F04044D1E9000540EA0510D4
:102BE0008D6840EA05208D8940EA0545088A401E27
:102BF00045EA0055087D801E45EA00608D6928433E
:102C00000443501C43F82040002030BDF0B587B08D
:102C100010F014F807463F483FA140F60702102382
:102C2000CDE90232CDE904100220C8234FF4967298
:102C30001421CDE900706420FFF722FA05463749D8
:102C40002846FFF7E5FC36A12846FFF717FD0022CE
:102C500001212846FFF724F9284610F0A5FC284654
:102C60000FF0E1FF04463148046031A040F6020154
:102C700000220223CDE90043CDE902210490222362
:102C80004FF49672002108460EF08FF9064623494C
:102C900030460EF007FA2B4930460EF059FA2A4812
:102CA00040F60A0100220223CDE90043CDE90221CA
:102CB000049022234FF49672232100200EF075F920
:102CC0000646164930460EF0EDF94FF07F4130468A
:102CD0000EF03EFA1D4840F60B0100220223CDE91A
:102CE0000043CDE90221049022234FF4967246213D
:102CF00000200EF05AF90646084930460EF0D2F987
:102D00004FF07F4130460EF023FA01201049087041
:102D100007B0F0BDE1E4010800000000ECC90408C0
:102D200046656174757265730000000048010020FB
:102D30005765617468657220466F7265636173746C
:102D400000000000FF0000FFE69B0120C89B01205F
:102D5000540100202DE9F0418CB0142107A8FDF7A3
:102D6000EEFA0FF06BFF0546874888A140F608028F
:102D70001023CDE90232CDE904100220C8234FF41C
:102D800096721421CDE900506420FFF779F90746C7
:102D90007F493846FFF73CFC7EA13846FFF76EFCC2
:102DA000002201213846FFF77BF8384610F0FCFB83
:102DB00038460FF038FF044678A040F60C01002298
:102DC0000223CDE90043CDE9022104901E234FF4F4
:102DD0009672002108460EF0E8F8804640F60C0195
:102DE00020460FF041FF06466F480660684940469E
:102DF0000EF058F96D4940460EF0AAF96C484FF4B0
:102E0000016100220623CDE90043CDE902210490AF
:102E1000B22346221E2100200CF0B6FB654840F686
:102E2000110100220623CDE90043CDE902210490DF
:102E3000B22346221E2110460CF0A6FB5E4840F647
:102E4000120100220623CDE90043CDE902210490BE
:102E5000B22346221E217D200CF096FB00252DE09A
:102E600005F5016120460FF0FFFE0646222130469F
:102E70000CF0B9FC482130460CF005FD4F493046B6
:102E80000CF09AFC0E2130460CF03CFD4C4A00211F
:102E900030460CF04CFD47F6FE52012130460CF056
:102EA00046FD232130460CF074FC464930460CF0B8
:102EB000B9FC002130460CF0CFFC6D1C032DCFDB9C
:102EC0004FF4016120460FF0CFFE0646002506E0D4
:102ED000374850F8251030460CF0B7FA6D1C142D09
:102EE000F6D340F6110120460FF0BEFE064600253F
:102EF00006E0304850F8251030460CF0A6FA6D1C5C
:102F00000B2DF6D340F6120120460FF0ADFE06461B
:102F1000002506E0284850F8251030460CF095FAB8
:102F20006D1C1F2DF6D300200222CDE901201E23A7
:102F30006422014600940390BE20FEF73CF9002174
:102F400020460FF091FE064611493046FEF7B2FAD0
:102F50001DA13046FEF7E1FA00208DF81C008DF827
:102F60001D008DF81E000A900B90012207A9184839
:102F700006F0C0F908B1FEF756FF012015490870A8
:102F80000CB0BDE8F081000005E50108000000007C
:102F9000ECC90408434C4F434B53000030303A30E7
:102FA000303A3030000000004C0100200000FFFFEC
:102FB0004800002098000020C4000020ECB4040861
:102FC0001919190031BA010854696D4F7574000060
:102FD000C89E0120550100202DE9F04186B00FF078
:102FE0002DFE07464B484CA140F609021023CDE9BF
:102FF0000232CDE904100220C8234FF49672142146
:10300000CDE900706420FFF73BF8054643492846A8
:10301000FFF7FEFA42A12846FFF730FB002201210C
:103020002846FEF73DFF284610F0BEFA28460FF06E
:10303000FAFD04463D4804603DA040F6020100222E
:103040000223CDE90043CDE90221049022234FF46D
:103050009672002108460DF0A8FF06462F4930461B
:103060000EF020F8384930460EF072F800200222A7
:10307000CDE901203023A522642100940390FEF7BE
:103080009AF8002120460FF0EFFD80462F4A0021DC
:103090004046FEF7F9F91920022101220023CDE96B
:1030A0000321CDE900410293059032236E221E21B7
:1030B00000200DF0CCF9012120460FF0D5FD80460F
:1030C000164940460DF0BDFA002221A140460DF000
:1030D000D3FA012220A140460DF0CEFA02200021B1
:1030E000CDE9004073236422CDE902101E21BE20E9
:1030F000FEF761F8022120460FF0B6FD8046074931
:103100004046FEF7D7F915A14046FEF706FA06B08D
:10311000BDE8F0818DE6010800000000ECC904085C
:103120005365747474696E67730000004001002079
:103130004D61696E2045717569706D656E742043CF
:103140006F6E74726F6C0000FF0000FF1057040870
:103150005748495445000000524544005374616E7D
:103160006462790010B5084800F018F8074800F0CC
:1031700015F8074800F012F8064800F00FF8064866
:1031800000F00CF810BD0000CE010020F701002077
:1031900005020020300200203F02002070B50446E6
:1031A0002046FDF7D7F80546AAB2FF232146064878
:1031B00006F04CFC214605A01AF006FE40F6AC5085
:1031C0001CF000FA70BD0000289F0120257300004C
:1031D00010B504460A2812D00D2C14D001F0CCFFF3
:1031E00009480068C06901682046884707480168A7
:1031F00009B120468847BDE8104003F011BCBDE886
:10320000104001F063BA10BD90030020D0030020ED
:103210002DE9F0430446C56887B0904689460020F2
:1032200002F026FD064625B1287910B146F00200CD
:1032300001E026F0020002F01BFD2069012558B1D3
:10324000D4E902128DE82600039563882288046879
:1032500041464846A0471EE0124F134B21463868AE
:103260001B68427CE068984730B9E088012801D0AB
:10327000002001E03868806BA288E388A16800958F
:10328000CDE90410CDE902320195638822884146D8
:1032900048460AF033FD07B03046BDE8F04302F07F
:1032A000E7BC000090030020800300201CB5002430
:1032B000019401AC009400F0E7F81CBD2DE9FF4F2C
:1032C00083B0814606988A46A0EB0A08109E00202B
:1032D0000090A2EB09043568934654EA080018D020
:1032E0002046FDF7E7FE07464046FDF7E3FE87422E
:1032F0000BDA2046444680464846D1468246584628
:10330000DDF818B0069001200090002C07DD204663
:1033100006E007B04846BDE8F04F00F03BB9604218
:10332000A0420AD04846D9466442C8F10008834604
:103330004FF0FF37DDF818A000E001275148B8F141
:10334000000F11D004EBD4714FEA610B01DACBF11D
:10335000000B4C480068807E88B3002F02DA30688A
:103360002044306000257BE000990029016821D0CD
:10337000897E11B10027804615E007B05A464946BC
:103380005046BDE8F04F0AF085BE28466D1C19F086
:10339000D7FA38B9D8F8000009EB0701406E426847
:1033A000504690477F1CA742EFDD6D1E356007B089
:1033B000BDE8F08F8A7E1AB10027804617E019E039
:1033C000486E5A465146036807B04846BDE8F04F7C
:1033D000184728466D1C19F0B3FA38B9D8F8001010
:1033E00009EB0700496E4A68514690477F1CA74287
:1033F000EFDDDAE700250FE008FB05B090FBF4F104
:1034000001EB0A00009951B11E4A09EB050112684F
:10341000526E526890476D1CA542EDDDC7E7194911
:1034200009EB05030968496E4A6801461846F1E749
:1034300008FB05B090FBF4F101EB0A000190306845
:103440003844306019F07CFA48B9009890B10D48C2
:1034500009EB05010068406E4268019890476D1CB9
:10346000A542E5DD3068002F01DA20443060C01B42
:1034700030609CE7034909EB05000968496E4A681A
:103480000199EBE7900300202DE9FF470F464049E3
:103490001646804609680C981D460A7E012A1CD0F3
:1034A000A8EB0600791B50EA01031CD0A2F1010928
:1034B0001AF08CFD00F58060824604F042FE00FBAD
:1034C00009F4504604F042FE00FB09F1002C0CDA2E
:1034D000C4F50070801240420AE00090324639463E
:1034E0004046FFF7EBFEBDE8FF8704F50074A0122D
:1034F000002904DAC1F5007189124C4202E001F59D
:1035000000718C12002804DD411C01EBD1714910BF
:1035100003E000EBD0714910401E00EBD070421068
:10352000002C04DD601C00EBD070401003E004EBC5
:10353000D4704010641E04EBD47308EB0104ADF8A2
:1035400000403C18ADF80240A8EB02045B10B21A30
:10355000ADF80440ADF808203144FC1AEA1AADF881
:103560000C102844ADF80A20ADF80E000023ADF889
:1035700006401A460421684600F07AF8394640466B
:1035800014F0F6FD2946304614F0F2FDABE70000DA
:1035900090030020064A13681A7E012A05D0521EA5
:1035A00002EBD272521000F005B85A6E5268104702
:1035B000900300202DE9F05F0646884640F2C320C4
:1035C00002FB00F14FF47A7091FBF0F702FB02F17D
:1035D00002EBD27001EB600B1446B118234A301B8A
:1035E0007F1C1268526E13680A46414698470125AF
:1035F00038E000BF05FB05F004FB040159451CDD64
:10360000BC4219DD194B06EB050AA6EB05091B6840
:10361000AAF1010208EB04015B6E09F101001B68CD
:103620009847124BAAF10102A8EB04011B6809F1AB
:1036300001005B6E1B689847641E0C4B3219301BEF
:103640001B68924608EB05015B6E81461B68984734
:10365000064B5246A8EB05011B6848465B6E1B688B
:1036600098476D1CBD42C5DDBDE8F09F900300206A
:103670002DE9FF4F43F6FF740F46664283B09B4629
:10368000814600210BE000BF09EB8100B0F9020088
:10369000A04200DA0446B04200DD0646491CB942A9
:1036A000F2DB67480068406900280DD0B0F90610C9
:1036B0001A46A1EB0B01B14200DA0E46B0F9020046
:1036C000801AA04200DD0446B4E0DFF878A10020B3
:1036D0000546CAF8000088E0781E854201DA6B1CB6
:1036E00000E0002309EB850C09EB8302BCF9020022
:1036F000B2F90210A04244D1A14215D139F92330C8
:10370000059A39F9251003EB020C4D4A0598126809
:10371000084404EB0B01526E6045136801DA6246FF
:103720002AE00246604627E02846A4464FF00008FB
:103730007A1E0BE008B1401E00E0781E09EB800302
:10374000B3F90230634504D108F101089045F1DB7B
:103750002346A34248D01A1B39F92500A1EB040CDB
:10376000059B92EA0C0F09D4354A184404EB0B016F
:103770001268526E13680246984735E011F05AF805
:1037800032E0A14230D001DBA04203DDA0422BDBBE
:10379000A14229DCE04688420ADC0346A04223DC41
:1037A0000846A14220DBB8F900C0B2F9001008E0D9
:1037B0000B46A14218DCA04216DBB2F900C0B8F9F2
:1037C0000010E21AA1EB0C0151430029A0EB030207
:1037D00002DD01EB620102E0A1EB6201491CC01AAB
:1037E00091FBF0F06044C9E76D1CBD42FFF674AF79
:1037F0000598009004EB0B000190002080460546E0
:1038000013E01149B8F1000F31F915A009D0009962
:1038100001EB0A0208440A490968496E0B680199DC
:10382000984788F0010850466D1C064909688D428A
:10383000E7DB641CB4427FF748AF07B0BDE8F08F08
:103840009003002088060020ECDD01200E4810B512
:10385000006802F0E5F90D48006802F0ECF901207B
:1038600002F060FA002002F06BFA002002F078FA11
:10387000002002F0FDF90648006802F005FABDE8F4
:103880001040002002F020BA8C03002088030020A2
:10389000840300202DE9F04FDFF828B191B04FF0FC
:1038A000FF35DBF80030B3F922100691DE69B3F979
:1038B0002490F469A189814206D8E289824203D327
:1038C000471AD4F8008012E0D4E9018100296FD0B2
:1038D0000A8882426CD84D88854269D3801A82B2A8
:1038E000486800EB8200B0F90070B0F90250781C13
:1038F0005ED0307EA17C10FB01FA217CCDE907016E
:10390000B3F92A6030460BF08BFBC0B20E90DBF8A7
:10391000000007FB0A81A37C826B0127CDE904121A
:10392000CDE90273C069089AC17E807ECDE90001AD
:10393000DDE9060349460AF0E1F9681C18D046F0B3
:1039400002000BF06DFBDBF80000A37C05FB0A8195
:10395000826BCDE90273CDE90412C069089AC17E79
:10396000807ECDE90001DDE9060349460AF0C6F98B
:10397000DBF800005D46C069417E007E814214D9BB
:10398000022E12D086F004000BF04AFB2868C069B2
:10399000027EC37E12FB0391437E857E089A0698C1
:1039A0004B4412FB05020AF007FD0E980BF038FBA2
:1039B000DBF80000627C418C1144418411B0BDE809
:1039C000F08F00009003002004480068C069C069BF
:1039D00009B1027C0A60407C70470000900300201F
:1039E000022008807047C06982898A4202D8C28951
:1039F0008A4210D2806880B102888A420DD84388FA
:103A00008B420AD3406800EB8100A0EB8200B0F942
:103A10000000002801DB01207047002070470000F3
:103A20002DE9F043304C034687B020681946B0F9C1
:103A30002A60C069C06900F086F8002850D041684B
:103A40000088181A01EBC0053046AF780BF0E8FA91
:103A5000814620686A680123816BCDE90237CDE990
:103A60000421C169CB7E8A7ECDE900230B7EB0F9AB
:103A700024102A78B0F922000AF040F92068C069C1
:103A8000417E027E91421FD9C07E11FB00F812FBDD
:103A900000F7022E18D001F058FA064601F01EFA7F
:103AA00002F0C9F821682A78CB69B1F92200DB7EDF
:103AB00012FB0302B1F9241001EB080339440AF0A8
:103AC0007BFC304602F0B7F848460BF0A9FA2068B4
:103AD0006A78C369B0F922109B7E12FB03114184FE
:103AE00007B0BDE8F08300009003002030B50F4C14
:103AF00005460B4620682946C069C06900F023F8D6
:103B0000002812D04168008824682A1A0120E4693C
:103B100000EBC200085CA47E10FB04F0002B04D074
:103B200011F8321011FB04F1196030BD9003002030
:103B300001200880704700B5C06900F004F8002833
:103B400000D0012000BD06E002888A4202D84288E7
:103B50008A4202D280680028F6D170472DE9F041F0
:103B60000025154E154C18E02069C5EB051700EB34
:103B7000C7007022001D3168FCF7B9FB20690021E5
:103B800040F8371000EBC70000F10C018161011D06
:103B90000A1DC0E90F126D1C4164A0688542E3DB79
:103BA00016F056F82169C0EB001001EBC000001DB3
:103BB0003060BDE8F081000090030020C0060020C6
:103BC00070B510490E480860084604F0ABF90D4C7A
:103BD000143CA068C0EB0010C500284600F0ACF80B
:103BE000094B20612A461B68002198474FF0FF309F
:103BF000206002F051FFBDE8704016F029B80000C7
:103C000071AE0108D40600206C060020F8B50C0047
:103C100005460ED001F0B0FA204600F01BF8060071
:103C200010D000F017F92246009025B12946074B25
:103C300003E00020F8BD064B00211B68984768464A
:103C400000F074F902F0ECFE3046F8BD700600207A
:103C50006C06002010B5040009D001F08DFA204652
:103C600011F016F9044602F0DBFE204610BD0020DC
:103C700010BD000038B5054601F07EFA2846FFF772
:103C8000E9FF04000AD000F0E5F8064B00902A4650
:103C90001B6800219847684600F048F902F0C0FE12
:103CA000204638BD6C060020024A106021F0030057
:103CB0005060704758DD012010B5040011D001F0AC
:103CC0005BFA0848042101EBC401406B4158486885
:103CD00010F0CEFD204618F015FBBDE8104002F0B4
:103CE0009FBE10BD98DC0120002805D0034AD16B8F
:103CF000016001B14860D0637047000098DC01208A
:103D000010B5044601F038FA2068FFF7D5FF00200F
:103D10002060BDE8104002F083BE000070B50D4683
:103D20000646002405E000BF06EB8400FFF7E8FF2D
:103D3000641CAC42F8DB70BD2DE9F041044616F07E
:103D400081FA2848E41C24F00305016C2D1DA942CA
:103D500000D90D46C46B13E054F8042CAA420ED1CE
:103D600084B1216809B162684A60616809B122685A
:103D70000A60C26BA24231D12168C1632EE024687F
:103D8000002CE9D18046816BC0680F1857F8040CED
:103D90003E1A306838B1002018F0AAFB57F8040C1E
:103DA0003E1A3068D0B97068A84217DB3044441B13
:103DB0003046241D18F054FBD8F80C10491BC8F8E5
:103DC0000C10D8F814102944C8F814107068401B5F
:103DD00002D0314610F04CFD44F8045C2046BDE8AA
:103DE000F081000098DC012010B5002416F02AFABA
:103DF0000C490F2001EBC002526C1AB101EBC0005C
:103E0000406C08E0401EF5D508E04168A14200D9A9
:103E10000C46806810B180680028F6D1A4F10C002F
:103E200010BD000098DC0120002138B104490422B3
:103E300002EBC000496B085841680C3908467047CE
:103E400098DC012002488169491C816170470000AB
:103E500098DC01200549CA69521CCA61496B01EB13
:103E6000C0010A78521C0A7000F078B898DC012072
:103E70007CB506460C460846FFF7ECFE050021D04F
:103E800006B33046FFF7D0FFA04200DA044601F047
:103E900073F92846FFF7DEFF00903046FFF7DAFFA0
:103EA000094B019001461B682246009898476846D6
:103EB00000F03CF801A800F039F83046FFF7FCFEAE
:103EC00002F0AEFD28467CBD7006002010B501F062
:103ED00053F9FFF789FF64220849B0F5800F04D930
:103EE00090FBF2F4086A444303E0096A4143B1FBE2
:103EF000F2F402F095FD204610BD000098DC012090
:103F00000549102805D94A68B0EB520F02D3500872
:103F100000E010208860704758DD01200248816968
:103F2000491E81617047000098DC01200A4902683F
:103F30004B6B52F8082C03EBC2021378022B03D30D
:103F4000CB690BB15B1ECB611178491E117000214A
:103F5000016008467047000098DC012003490422F4
:103F600002EBC000496B08580830704798DC01200C
:103F70002DE9FC414FF000060B465FEA000834468D
:103F80002BD032B111461846FFF740FE060000D193
:103F900001244046FFF75EFF0090078845686846A9
:103FA000FFF7C4FFCCB9B9002846091DFFF760FF31
:103FB000050015D0FFF74EFF019040F8276001A8DB
:103FC000FFF7B4FF4046FFF745FF009045600188CA
:103FD000491C01806846FFF7A9FF2046BDE8FC8127
:103FE0003046FFF769FE0124F7E70820FFF742BEDD
:103FF0007CB5050023D0FFF72DFF00904068C0B1CD
:10400000FFF728FF0024019005E0019800EB8400F1
:10401000FFF776FE641C00980088A042F5DC01A83A
:10402000FFF784FF0098001DFFF76AFE009900204B
:1040300008806846FFF77AFF2846FFF73DFE7CBD03
:104040007CB50C46FFF706FF00900188A14220D9FD
:104050004568F5B101F090F82846FFF7FBFE0190A6
:1040600000EB8400FFF74CFE00990888401E80B2E8
:104070000880401E019905E001EB8402526841F876
:104080002420641C8442F7DD01A8FFF74FFF02F0F3
:10409000C7FC6846FFF74AFF7CBD38B5002430B145
:1040A000FFF7D8FE009004886846FFF73FFF2046E0
:1040B00038BD38B50D46002448B1FFF7CBFE294680
:1040C000009000F05FF804466846FFF72FFF204697
:1040D00038BD38B50D46002448B1FFF7BBFE294670
:1040E000009000F061F804466846FFF71FFF204685
:1040F00038BD00002DE9FE43984691460D46002448
:10410000D8B3FFF7A7FE01900788466801A8FFF71C
:104110000DFFBD4231D286B33046FFF79BFE0090C3
:1041200050F825406846FFF701FF24B12046FFF70D
:104130007BFE404511D04046FFF79CFD04000CD0AB
:104140003046FFF787FE00EB850500902846FFF715
:10415000D7FD68462C60FFF7E9FEB9F1000F0CD0DF
:104160005CB12046FFF776FE054B029042461B6885
:104170004946984702A8FFF7D9FE2046BDE8FE83CE
:104180007006002038B50D4601880024A94209D9DF
:10419000406838B1FFF75EFE009050F82540684651
:1041A000FFF7C4FE204638BD10B50024FFF7EAFF34
:1041B00010B1FFF74FFE0446204610BD70B51446FF
:1041C0000D46064600F0D8FF204600F0CBFE030067
:1041D000174804EB840109D050F821004168806839
:1041E000711A2A1A184601F05FFD1CE000EB8104E9
:1041F000A268B24201D0012200E00022E368AB4293
:1042000001D0012300E000231A430CD0236943B1FD
:1042100050F82100816840686A1A311A184601F086
:104220007FFCC4E90265BDE8704002F0F9BB000004
:10423000D4DE012010B5C2B2CBB2D21A00D55242A0
:1042400093B25B43C0F30722C1F30724121B00D5CE
:104250005242000C92B2A0EB114002FB023200B2BB
:10426000002801DA404200B280B200FB002010BDFD
:1042700010B50021084600F025FF43F6FF725042BA
:10428000BDE8104013460146AFF300802DE9FC4124
:104290001C4615460E46074600F06EFF04200AF045
:1042A000BFFE804612484069C16C006D0F44064451
:1042B0000D440444ADF80070ADF80450ADF8026050
:1042C000ADF8064068460FF051FE07E023462A4647
:1042D000314638460AF070F80FF0FCFD0028F5D1A1
:1042E00040460AF09DFE02F09BFBBDE8FC81000009
:1042F0007C030020B0F90630B0F90420B0F90210B8
:10430000B0F90000FFF7C2BF2DE9F8431C00DDE95A
:10431000089816460F46054602D10EF08FFC04465B
:1043200000962E6843464A4621462846B047061E58
:1043300039D00EF078FC8146698A30460EF0BEF81E
:1043400030460FF091FC48460FF08EFC4FF000080D
:104350000CE000BFCDF8008055F81CCF00231A46B2
:1043600049462846E04700B30FF07EFC7F1E002F31
:10437000F0DC1D2148460FF096FA601C12D000F0C8
:10438000FBFE0EF0B7FC30B1FFF7E8FD8469B442E4
:1043900001D02000F8D1B44202D030460FF08CFB9F
:1043A00002F03EFB3046BDE8F88330460EF02CFBB1
:1043B0000020F8E72DE9F0411C4616460D46074659
:1043C000022B02DB0020BDE8F0811C20FFF7B4FCCB
:1043D0000028F8D00DB105610AE0094A52F824100E
:1043E00009B905E011460A68002AFBD10969016193
:1043F00084618682002101604160C0E90217E2E722
:10440000BC03002070B51D46FFF7D4FF040009D09F
:1044100000F00EF8E068006820B90348006800EB7F
:1044200085008465204670BD90030020FFF75CBCCA
:1044300070B5C0B38269022A36DA2149531C0C7860
:104440009C4200DA0B701F4C54F8221019B944F842
:10445000220032E019464B68002BFBD106E0CB6806
:10446000C5681B682D68AB4203DD09680029F6D1D9
:104470001AE0C1B1CB68C6681B683668B3420CD17C
:10448000838A012B05D008E01946DB681B68AB4224
:1044900003DB0B68002BF7D129B14B6833B11860EF
:1044A0004A68426004E0FFE7012070BD44F8220042
:1044B0004860884200D100210160002070BD0000EA
:1044C000E2030020BC03002010B503E00468FFF7FE
:1044D000AFFF20460028F9D110BD000010B50C4BED
:1044E0008269002153F82240844205D1046843F8D0
:1044F0002240026802B1516042680AB10368136049
:1045000002680AB1436853600160416010BD000059
:10451000BC03002000207047022801DB0020704708
:10452000054A52F8200004E0C26812688A42F6D0B8
:1045300000680028F8D17047BC030020022801DB86
:1045400000207047054951F8200004E0C16809685F
:104550000029F6D000680028F8D17047BC0300207D
:10456000F8B516460F4605004FF0000414D00C2095
:10457000FFF780FB04000FD000F0FEFD2046FFF7A0
:1045800069FC06490090C0E900150781468168462C
:10459000FFF7CCFC02F044FA2046F8BD64DE0408C4
:1045A000F8B5074615460E460C20FFF763FB0400DE
:1045B0000FD000F0E1FD2046FFF74CFC06490090CB
:1045C000C0E90017068145816846FFF7AFFC02F09D
:1045D00027FA2046F8BD0000F8E704082DE9F84363
:1045E0001D461646884604000CD0FFF733FC0090A9
:1045F000006807686846FFF799FC2B46324641463B
:104600002046B847BDE8F8832DE9F041044602F0A2
:104610003EFA0619164F1FE000F0A8FB38688442E6
:1046200000DD0446A04600F0A7FD12480568FFF72C
:1046300009FC2C0017D000BF02F0F2F9641EFBD178
:10464000404602F019FA1DB100F096FD6D1EFBD137
:10465000FFF764FC02F0E4F902F019FA341A002CB6
:10466000DADCBDE8F081404602F006FAF0E700002F
:10467000F8030020CC06002010B5044600F07CFDB5
:104680002046FDF7ADF9BDE8104002F0C9B90000C1
:1046900070B514460D46064600F06EFD05480168EB
:1046A00030464D848C84FDF79BF9BDE8704002F0E4
:1046B000B7B900009003002070B50C46054602E033
:1046C0002846FFF7D9FF641EFAD570BD10B500F07B
:1046D00053FD00F05FFC054909688A8C104488840A
:1046E000088C4884BDE8104002F09AB9900300207D
:1046F0002DE9FC4706005FD000F03EFD00F04AFCCB
:104700003C4C81462068B0F9228000F0A5FC21686D
:1047100007468A8CD01B888441E000BF47F6FF71B2
:10472000304603F059FA82460146304603F02AFA31
:104730002168054691F82C0000F00300012841D0C3
:1047400002283BD000204A8C101A4884ADF80000A3
:104750006A1E1044ADF80400888CADF80200A9F17F
:1047600001010844ADF806006A465146304602F0A1
:1047700075FB2168BDF8020088845146304602F07E
:104780003DF8064430780A281ED00D281CD0BDF80C
:104790000000216828444884307818B1761C3078AD
:1047A0000028BBD12068818C39448184818D21F01F
:1047B0000301818502F034F9BDE8FC8705EBD57073
:1047C0004010C0E72846BEE7206890F82C1001F0A2
:1047D000030101290BD0022909D0018C41843178D1
:1047E0000A29D9D1828C02EB09018184D4E7A0F88F
:1047F0002280F4E79003002070B514460D4606466B
:1048000000F0BAFC05480068458484843046FFF710
:104810006FFFBDE8704002F003B900009003002074
:1048200047F6FF73AFF300802DE9FC411F46904629
:104830000D4606004FF000041AD000F09DFC65B153
:1048400028460FF001FA040007D0024629466846C0
:1048500003F036FA68460FF0F7F93B464246294620
:10486000304602F053FB20460FF0EEF902F0D8F884
:10487000BDE8FC812DE9FF4F87B0904689460700CF
:104880007ED000F079FCD9F80040D9F8045021B26C
:1048900028B2401A401C029000F07CFB064618F03B
:1048A0000C0F1ED038460A9A029902F0C3F808F09D
:1048B0000C01042904D0082902D00C2911D104E0EC
:1048C000291400FB1610401C09E02114C1EB2542FD
:1048D00000FB1620401C00EBD07001EB600060F381
:1048E0001F4448460FF0B0F95FEA000B09D00246BA
:1048F000494604A8CDE9044503F0E2F904A80FF005
:10490000A3F9A6F1010A38460A9A029903F090FB2E
:1049100003900AEB244060F31F45CDE9004538467B
:10492000039903F02FF918F003010FD001292DD0BE
:1049300002290FD1B9F90420B9F90010521A101A3E
:10494000401C00EBD07001EB600001E0B9F8000002
:10495000ADF800006A463846039902F07FFA3846FF
:104960000A9A029903F05AFB074406EB244060F3CD
:104970001F4438780028C6D158460FF065F900E08A
:1049800001E002F04DF80BB0BDE8F08FB9F804106B
:10499000081A401CDCE700007CB514460D460646AC
:1049A00000F0EAFB11480068C16C006D0D4404443E
:1049B0003188681E0844ADF80400ADF800507188D5
:1049C000601E0844ADF80600ADF8024068460FF0DE
:1049D000CDFA06E0224629463046FEF719FC0FF0D4
:1049E00079FA0028F6D102F01BF87CBD9003002074
:1049F0001CB50A460146684603F086FA00F0BCFB87
:104A00002548BDF80010006830F84C2F1144ADF86F
:104A10000010BDF8021082881144ADF80210BDF8F4
:104A2000041002881144ADF80410BDF80610808807
:104A30000844ADF8060068460FF098FA27E000BF7A
:104A4000BDF900400BE000BFBDF90210204609F09F
:104A5000DBFABDF90610204609F0D6FAA41CBDF910
:104A60000400A042F0DABDF902400AE0BDF90000FE
:104A7000214609F0C9FABDF90400214609F0C4FA3B
:104A8000A41CBDF90600A042F0DA0FF023FA0028BA
:104A9000D6D101F0C5FF1CBD900300202DE9F04FD9
:104AA00087B09B46DDE9109892460C46054600F01B
:104AB00063FB16480168C86C096D47190E1900EBB5
:104AC0000A0501EB0B04ADF81070ADF81450ADF809
:104AD0001260ADF8164004A80FF048FA88B1DFF86C
:104AE00030B04FF0000ACDE90098CDE902BA2B466C
:104AF00022463946304613F0DFF90FF0EBF9002873
:104B0000F1D101F08DFF07B0BDE8F08F90030020D8
:104B100095E000082DE9F04F87B09B46DDE910983D
:104B200092460C46054600F027FB16480168C86C03
:104B3000096D47190E1900EB0A0501EB0B04ADF8DE
:104B40001070ADF81450ADF81260ADF8164004A81E
:104B50000FF00CFA88B1DFF830B04FF0010ACDE960
:104B60000098CDE902BA23462A463146384613F06A
:104B7000A3F90FF0AFF90028F1D101F051FF07B010
:104B8000BDE8F08F9003002001DF00082DE9FC4113
:104B900014460D46064600F0EFFA114F3968C86C0E
:104BA000096D054404440E44ADF80050ADF80440CE
:104BB000ADF80260ADF8066068460FF0D7F908E07E
:104BC000386822463146406E0368284698470FF001
:104BD00081F90028F4D101F023FFBDE8FC81000039
:104BE000900300202DE9F0411C4615460E4607466D
:104BF00000F0C2FA0C480168C86C096D074405440E
:104C00000E440C4400200FF0B1F907E023462A4679
:104C100031463846FEF74AFB0FF05CF90028F5D123
:104C2000BDE8F04101F0FCBE900300207CB50C46CD
:104C3000064600F0A1FA0F4D2868C16C006D0E44C5
:104C40000444ADF80460ADF80060ADF80640ADF87E
:104C5000024068460FF08AF907E028682146406E56
:104C60004268304690470FF035F90028F5D101F041
:104C7000D7FE7CBD900300202DE9FC411C46164662
:104C80000D46074600F078FA1A480168087ECA6C9B
:104C9000096D17440D440C44401E391A1644ADF8F2
:104CA00000103118ADF80410291A2044ADF80600A0
:104CB000ADF8021068460FF059F915E03246294662
:104CC000384609F01DF932462146384609F018F9F0
:104CD000621E691C384609F0DDF9621E691C304607
:104CE00009F0D8F90FF0F6F80028E7D101F098FEA6
:104CF000BDE8FC81900300207CB514460D460646B5
:104D000000F03AFA0F480068C16C006D0E4405448B
:104D10000444ADF80060ADF80460ADF80250ADF8A1
:104D2000064068460FF022F906E022462946304642
:104D300009F0B0F90FF0CEF80028F6D101F070FEBE
:104D40007CBD00009003002070B50C46054600F0C5
:104D500013F910B10121C0E9001400F00DFA284642
:104D60000FF03AF8BDE8704001F05ABE10B50024CB
:104D700000E0012400F004F80028FAD1204610BD1C
:104D80000B4810B50068002410B1804700B1012421
:104D90000DF0C4FE00B101240648006810B1804740
:104DA00000B101240448006800B18047204610BDCE
:104DB0009C030020C8030020C40300202DE9FC410F
:104DC0001C4615460E46074600F0D6F91048006806
:104DD000C16C006D0F4406440D440444ADF80070EE
:104DE000ADF80450ADF80260ADF8064068460FF02B
:104DF000BDF807E023462A463146384609F0DCFA7A
:104E00000FF068F80028F5D101F00AFEBDE8FC813A
:104E100090030020B0F90630B0F90420B0F9021078
:104E2000B0F90000FFF7CABF08B50B46002805D04F
:104E3000009281888268C08800F001F808BD10B532
:104E40000828029C30D008DC04FB01F401280AD0B9
:104E5000022813D0042804D11CE0102828D02028D0
:104E60002CD0002010BD04EBD30003F00701105C30
:104E7000C1F10701C84000F0010010BD04EB930030
:104E80000621105C01EA4301C1F10601C84000F0AF
:104E9000030010BD04EB5300D907105C02D000F0F2
:104EA0000F0010BD000910BD04FB0130105C10BDE7
:104EB000481004FB003032F8100010BD881004FBCD
:104EC000003052F8200010BD034951F82000C1689D
:104ED0008A6A082110470000BC03002010B500F0CA
:104EE0004BF909F099FA09F09BFB044601F098FD93
:104EF000204610BD10B5044600F03EF905480021DB
:104F00000068C069426820469047044601F088FD69
:104F1000204610BD9003002070B50C46054600F0F9
:104F20002BF9064821460068C06942682846904728
:104F3000044601F075FD204670BD0000900300207E
:104F4000002801D00DF04CBE704710B500F014F9E8
:104F500009F06AFA09F064FB044601F061FD20469D
:104F600010BD00000021022802D2024951F8201091
:104F7000084670479C0600201FB500210191029150
:104F800003912A21009169460EF07EFC039804B03B
:104F900010BD000010B500F0EFF804480068C069CB
:104FA000447E01F03DFD204610BD0000900300202E
:104FB00070B50D46044600F0DFF814B909480068E2
:104FC000C469294694F82000A87094F8220028713A
:104FD00094F82100E870A26820469047BDE8704030
:104FE00001F01EBD9003002010B500F0C5F802F0DE
:104FF000BFFD044601F014FD204610BD70B51546F6
:105000000E46044600F0B8F82A463146204609F01C
:105010008FFA040002D000203060286001F000FD0B
:10502000204670BD70B50C46054600F0A5F8214637
:10503000284602F0FBFDBDE8704001F0F1BC10B560
:10504000044602F0E5FD01462046BDE8104002F0AE
:1050500099BD01F01CBD000010B5002400F08CF8D3
:105060000B48006890F82C1001F00C01042904D0C2
:10507000082906D00C2907D103E0C069047E641E0C
:1050800002E0C069007E440801F0CAFC204610BD61
:1050900090030020407E7047017EC07E11FB00F02F
:1050A00070470000024951F820000069006870470D
:1050B000BC030020024951F8200000694068704795
:1050C000BC03002070B50C46054600F055F80448B6
:1050D00000684584848401F0A3FC002070BD0000BA
:1050E000900300202DE9F0411D48016821F00101E5
:1050F00001601C480126866081680029FCD11A499C
:10510000016000681949884200D0FEE701F0D6FD31
:10511000174C2E20207001F0BEFC164815F046F802
:105120001AF058F9074609F02BFA10B109F03CFAC9
:1051300038B909F042FA054609F02BFA294609F078
:1051400069FF0021084600F0CDFD0EF00DF9FEF7D5
:1051500005FDA06900B18047A6703846BDE8F08122
:10516000002000E000300240C2A507F4CDB5E8B54C
:105170007C03002064DD012070B5184CE06820B18C
:1051800001F081FC6168884204D001F0C5FC01F0A7
:105190007AFC6060E068401CE06001281CD114F0DB
:1051A00057FD05462068854216D0002813DBFFF71F
:1051B000B1F901462068C0EB0012206900EBC20281
:1051C0005167C5EB0511064A00EBC100011D1160D6
:1051D000406FFFF779F9256070BD0000C006002020
:1051E000900300201CB5040004D10E480068046E32
:1051F000002C16D0FFF7C0FF2046FEF72BFE0090D4
:1052000044696846FEF792FE4CB12046FEF722FE46
:10521000019081688968884701A8FEF787FE01F040
:10522000FFFB1CBD9003002001490A4600F002B8B4
:1052300001F0FFFF2DE9F04387B015460C465FEA09
:10524000000846D0FFF798FF002000F011FD8146CE
:1052500021480068066E4046FEF7FCFD009000689D
:10526000806900F085FC074640F6FF70C44204D117
:105270000098B0F90440B0F906500098611E028908
:10528000ADF804401144ADF808104189681E084487
:10529000ADF80650ADF80A000DF01AFA6846FEF7B0
:1052A00045FE01A80EF062FE06E02A462146404671
:1052B00000F024FB0EF00EFE0028F6D1384600F078
:1052C00057FC304600F0DEF9484600F0D1FC01F012
:1052D000A7FB07B0BDE8F083900300202DE9FE4F47
:1052E000984691468A46834600270C9EFFF744FF66
:1052F000184819490068407C51F82040E168096865
:10530000042903D02468002CF8D100E01CB9FFF771
:1053100015F9041E1BD0E0680121C26A204690479F
:10532000050011D02469A0688047401C02D10B4CB5
:1053300046F001060096CDE9015443464A465146DF
:10534000584600F033FA074601F06AFB3846BDE8DC
:10535000FE8F000090030020BC03002054DF0408EF
:1053600038B504001CD0FFF707FF0E480068006E38
:10537000A04201D100F0EEFB2046FEF76BFD00904D
:10538000406908B101F035FB00980068FFF74EF85E
:105390006846FEF7CBFD2046FEF78EFC01F040FB91
:1053A00038BD0000900300202DE9FF4F83B09A46DE
:1053B0008B460746FFF7E0FEDFF83891D9F800008A
:1053C000447C4D4800570128204606DD09F0DEF8F0
:1053D0000546204609F0EEF805E009F0BFF805465D
:1053E000204609F0C1F804461FB302A901A8FFF73F
:1053F00019FEB7F90000002800DA0020B7F90260B2
:105400008046002E00DA002601984119B7F9040001
:10541000491E15F094FA054602980119B7F90600DD
:10542000491E15F08CFAA5EB0802841B521C641C63
:1054300003E04FF0000846462A46BAF1000F01D1BA
:10544000C4F1000A002A51DD002C4FDD10980090B5
:10545000534631464046FFF741FF5FEA000A10D04D
:1054600000F0CAF80746A04206D0D9F80000806CC8
:1054700010B132210FF014F9504600F003F9002565
:1054800023E059460598884701F0CAFA012007B081
:10549000BDE8F08F611BB94202DA504600F0D6F841
:1054A0003DB172194146504600F014F95046FFF7DD
:1054B00099FE5946059888471048016809B10020AF
:1054C00088475046FFF7B0FE3D44A542E2DB504618
:1054D000FFF746FF002000F0D5F8A74206D0D9F824
:1054E0000000806C10B133210FF0DAF801F098FA67
:1054F0000020CCE790030020E003002020070020DC
:1055000038B505004FF0000411D0FFF735FE2846EE
:10551000FEF7A0FC0090006800698068804709F0F1
:105520007BFF04466846FEF701FD01F079FA20464C
:1055300038BD38B504000ED0FFF71EFE2046FEF73A
:1055400089FC00F1180400906846FEF7EFFC01F0BA
:1055500067FA204638BD002038BD000038B5044643
:105560000025FFF709FE1CB908480068046E44B125
:105570002046FEF76FFC0090B0F904506846FEF735
:10558000D5FC01F04DFA284638BD000090030020FC
:1055900038B504460025FFF7EFFD1CB90848006840
:1055A000046E44B12046FEF755FC0090B0F9085057
:1055B0006846FEF7BBFC01F033FA284638BD000010
:1055C0009003002038B504460025FFF7D5FD1CB92F
:1055D00008480068046E44B12046FEF73BFC00908A
:1055E000B0F906506846FEF7A1FC01F019FA28460A
:1055F00038BD00009003002038B504460025FFF7B1
:10560000BBFD1CB908480068046E44B12046FEF793
:1056100021FC0090B0F90A506846FEF787FC01F0C3
:10562000FFF9284638BD00009003002070B50546FC
:105630000024284610F014F8641C18B1BDE870402E
:1056400000F07AB8052CF4DB70BD000038B50C46CC
:10565000050004D10A480068056E002D0FD0FFF741
:105660008BFD2846FEF7F6FB0090B0F90A10A14228
:1056700000DD44816846FEF759FC01F0D1F938BDE0
:1056800090030020F8B50546FFF776FD104E306810
:10569000046ECDB10CB100F05DFA0DF06DF9284645
:1056A000FEF7D8FB009031680D660068FEF7C0FE7B
:1056B0006846FEF73BFC09F037FD09F0B7FB00BF79
:1056C00001F0AEF92046F8BD00F044FAF8E700001A
:1056D000900300207CB515460E46040004D1154801
:1056E0000068046E002C24D0FFF746FD2046FEF72C
:1056F000B1FB2DB20090C58034B2848009F096FBD6
:105700000098406980B1FEF7A5FB009A0190B2F9BC
:1057100008108180B2F90A20C28011B10AB1048058
:10572000458001A8FEF702FC6846FEF7FFFB01F08A
:1057300077F97CBD9003002001490A4600F002B8C9
:1057400001F0FFFF7FB515460C4606002DD0FFF790
:1057500013FD3046FEF77EFB40F6FF710190CC4210
:1057600003D1B0F90440B0F906500289611E11441A
:10577000ADF80840ADF80C104189681E0844ADF83A
:105780000E00ADF80A5001A8FEF7D0FB02A80EF0FB
:10579000EDFB06E02A462146304600F097F80EF071
:1057A00099FB0028F6D101F03BF97FBD2DE9FF4FB1
:1057B000DFF8E8B083B01C46DBF80010DDE91060CC
:1057C00092464FF000084B7C42461299FEF7F2FDDC
:1057D000050060D028698068804709F01DFE814679
:1057E0000AFB09F1C91DCF08FEF770FBF10705D1CF
:1057F000C11700EB9170801000EB4000002C09DC19
:105800001FB11838B0FBF7F000E000206442A0425E
:1058100000DC0446F00707D10090DDE903012346D0
:10582000524601F06BF88046002C03DC2846FEF758
:10583000FDFD30E004FB07F01830F10702D0FEF761
:1058400009FA01E0FEF716FA06001CD0FEF702FB8B
:1058500001900560039981800499C180A0F808A097
:105860004481C0F81480C0E9037901A8FEF75EFB0B
:105870001298AE602861DBF80000407CA8613046D9
:1058800007B0BDE8F08F2846FEF7D0FDB8F1000064
:1058900001D0FEF711FA0020F2E70000900300208B
:1058A000014908607047000020070020054B30B414
:1058B0001B68054C5B7C54F823301B6930BC17F027
:1058C000C1BD000090030020BC030020F8B51546C0
:1058D0000E460746FEF7BEFA009000681621C06823
:1058E000426A0020904704466846FEF71FFB002CE2
:1058F00003D02A4631463846A047F8BDF8B51646CB
:105900000F46050012D0FEF7A5FA009044696846DC
:10591000FEF70CFB2846FFF7F3FD0346082800DDE1
:105920002CB132463946284617F04CFEF8BD3246B7
:105930003946284617F0E6FFF8BD10B5002821D0FB
:1059400009B30AB3B1F90040B2F900309C4200DA61
:1059500023460380B1F90240B2F902309C4200DADA
:1059600023464380B1F90440B2F904309C4200DD83
:1059700023468380B1F90610B2F90620914200DC7B
:105980001146C18010BD11460A6802604968416035
:1059900010BD00280BD003880B4403808388194472
:1059A0008180418811444180C1881144C180704781
:1059B00070B50E4D0446D5E90001884209D10C4965
:1059C000884201D13C3000E00C3807C884E8070069
:1059D00006E090E80E0084E80E0014F0B5FA2860A6
:1059E000207A002800D0012070BD0000E4080020CB
:1059F00014DF01200448D0E90010814201D10120C8
:105A00007047002070470000E408002010B50949E5
:105A10000446086820B908480860084602F082FA7F
:105A2000074906480860204617F0EAFBBDE8104029
:105A300000F0A6B9F40800209DAE0108692F010806
:105A4000CC03002070B50025FFF796FB094CD4E984
:105A5000002082420AD0D2E90056104614F07EFAA5
:105A60002060314628460DF015FE012500F0D8FFD4
:105A7000284670BD8C0600202DE9FC41154DDDE95E
:105A800008742D68B5F90860864200DD3046B5F926
:105A90000C60964200DA3246824219DBB5F90A60A0
:105AA0008E4200DD3146B5F90E509D4200DA2B469C
:105AB0008B420DDB00E02C46E5682D6825B1042DF6
:105AC00002D02568002DF6D1CDE9007408F0E6FE7D
:105AD000BDE8FC8190030020B0F90220B1F9063046
